{
  "contractName": "Migrations",
  "abi": [
    {
      "inputs": [],
      "stateMutability": "nonpayable",
      "type": "constructor"
    },
    {
      "inputs": [],
      "name": "last_completed_migration",
      "outputs": [
        {
          "internalType": "uint256",
          "name": "",
          "type": "uint256"
        }
      ],
      "stateMutability": "view",
      "type": "function"
    },
    {
      "inputs": [],
      "name": "owner",
      "outputs": [
        {
          "internalType": "address",
          "name": "",
          "type": "address"
        }
      ],
      "stateMutability": "view",
      "type": "function"
    },
    {
      "inputs": [
        {
          "internalType": "uint256",
          "name": "completed",
          "type": "uint256"
        }
      ],
      "name": "setCompleted",
      "outputs": [],
      "stateMutability": "nonpayable",
      "type": "function"
    },
    {
      "inputs": [
        {
          "internalType": "address",
          "name": "new_address",
          "type": "address"
        }
      ],
      "name": "upgrade",
      "outputs": [],
      "stateMutability": "nonpayable",
      "type": "function"
    }
  ],
  "bytecode": "0x608060405234801561001057600080fd5b50336000806101000a81548173ffffffffffffffffffffffffffffffffffffffff021916908373ffffffffffffffffffffffffffffffffffffffff1602179055506104e4806100606000396000f3fe608060405234801561001057600080fd5b5060043610610069576000357c0100000000000000000000000000000000000000000000000000000000900480630900f0101461006e578063445df0ac1461008a5780638da5cb5b146100a8578063fdacd576146100c6575b600080fd5b61008860048036038101906100839190610327565b6100e2565b005b610092610202565b60405161009f919061036d565b60405180910390f35b6100b0610208565b6040516100bd9190610397565b60405180910390f35b6100e060048036038101906100db91906103de565b61022c565b005b60008054906101000a900473ffffffffffffffffffffffffffffffffffffffff1673ffffffffffffffffffffffffffffffffffffffff163373ffffffffffffffffffffffffffffffffffffffff1614610170576040517f08c379a00000000000000000000000000000000000000000000000000000000081526004016101679061048e565b60405180910390fd5b60008190508073ffffffffffffffffffffffffffffffffffffffff1663fdacd5766001546040518263ffffffff167c01000000000000000000000000000000000000000000000000000000000281526004016101cc919061036d565b600060405180830381600087803b1580156101e657600080fd5b505af11580156101fa573d6000803e3d6000fd5b505050505050565b60015481565b60008054906101000a900473ffffffffffffffffffffffffffffffffffffffff1681565b60008054906101000a900473ffffffffffffffffffffffffffffffffffffffff1673ffffffffffffffffffffffffffffffffffffffff163373ffffffffffffffffffffffffffffffffffffffff16146102ba576040517f08c379a00000000000000000000000000000000000000000000000000000000081526004016102b19061048e565b60405180910390fd5b8060018190555050565b600080fd5b600073ffffffffffffffffffffffffffffffffffffffff82169050919050565b60006102f4826102c9565b9050919050565b610304816102e9565b811461030f57600080fd5b50565b600081359050610321816102fb565b92915050565b60006020828403121561033d5761033c6102c4565b5b600061034b84828501610312565b91505092915050565b6000819050919050565b61036781610354565b82525050565b6000602082019050610382600083018461035e565b92915050565b610391816102e9565b82525050565b60006020820190506103ac6000830184610388565b92915050565b6103bb81610354565b81146103c657600080fd5b50565b6000813590506103d8816103b2565b92915050565b6000602082840312156103f4576103f36102c4565b5b6000610402848285016103c9565b91505092915050565b600082825260208201905092915050565b7f546869732066756e6374696f6e206973207265737472696374656420746f207460008201527f686520636f6e74726163742773206f776e657200000000000000000000000000602082015250565b600061047860338361040b565b91506104838261041c565b604082019050919050565b600060208201905081810360008301526104a78161046b565b905091905056fea26469706673582212201de440f7096463a43988bd134e97a3e9bf288d3946aec6252f69dfe412fa08ba64736f6c634300080a0033",
  "immutableReferences": {},
  "source": "// SPDX-License-Identifier: UNLICENSED\r\npragma solidity ^0.8.10;\r\n\r\ncontract Migrations {\r\n    address public owner;\r\n    uint public last_completed_migration;\r\n\r\n    modifier restricted() {\r\n        require(msg.sender == owner, \"This function is restricted to the contract's owner\");\r\n        _;\r\n    }\r\n\r\n    constructor() {\r\n        owner = msg.sender;\r\n    }\r\n\r\n    function setCompleted(uint completed) public restricted {\r\n        last_completed_migration = completed;\r\n    }\r\n\r\n    function upgrade(address new_address) public restricted {\r\n        Migrations upgraded = Migrations(new_address);\r\n        upgraded.setCompleted(last_completed_migration);\r\n    }\r\n}\r\n",
  "sourcePath": "C:\\Users\\bbyas\\Documents\\Kuliah\\Skripsi\\backend\\blockchain\\pkg\\truffle\\contracts\\Migrations.sol",
  "compiler": {
    "name": "solc",
    "version": "0.8.10+commit.fc410830.Emscripten.clang"
  },
  "schemaVersion": "3.4.16",
  "updatedAt": "2024-10-29T14:56:19.407Z",
  "devdoc": {
    "kind": "dev",
    "methods": {},
    "version": 1
  },
  "userdoc": {
    "kind": "user",
    "methods": {},
    "version": 1
  }
}