{
  "contractName": "SimpleStorage",
  "abi": [
    {
      "inputs": [],
      "stateMutability": "nonpayable",
      "type": "constructor"
    },
    {
      "inputs": [
        {
          "internalType": "uint256",
          "name": "x",
          "type": "uint256"
        }
      ],
      "name": "set",
      "outputs": [],
      "stateMutability": "nonpayable",
      "type": "function"
    },
    {
      "inputs": [],
      "name": "get",
      "outputs": [
        {
          "internalType": "uint256",
          "name": "",
          "type": "uint256"
        }
      ],
      "stateMutability": "view",
      "type": "function"
    }
  ],
  "bytecode": "0x608060405234801561001057600080fd5b5061016d806100206000396000f3fe608060405234801561001057600080fd5b5060043610610053576000357c01000000000000000000000000000000000000000000000000000000009004806360fe47b1146100585780636d4ce63c14610074575b600080fd5b610072600480360381019061006d91906100e0565b610092565b005b61007c61009c565b604051610089919061011c565b60405180910390f35b8060008190555050565b60008054905090565b600080fd5b6000819050919050565b6100bd816100aa565b81146100c857600080fd5b50565b6000813590506100da816100b4565b92915050565b6000602082840312156100f6576100f56100a5565b5b6000610104848285016100cb565b91505092915050565b610116816100aa565b82525050565b6000602082019050610131600083018461010d565b9291505056fea2646970667358221220d01bdfe0204ef4d96cdbb21e08f7c95a1f8af5d6e7671781f8f511bc6735216964736f6c634300080a0033",
  "immutableReferences": {},
  "source": "// SPDX-License-Identifier: UNLICENSED\r\npragma solidity ^0.8.10;\r\n\r\ncontract SimpleStorage {\r\n    constructor(){\r\n\r\n    }\r\n    uint256 private storedData;\r\n\r\n    function set(uint256 x) public {\r\n        storedData = x;\r\n    }\r\n\r\n    function get() public view returns (uint256) {\r\n        return storedData;\r\n    }\r\n}\r\n",
  "sourcePath": "C:\\Users\\bbyas\\Documents\\Kuliah\\Skripsi\\backend\\blockchain\\pkg\\truffle\\contracts\\SimpleStorage.sol",
  "compiler": {
    "name": "solc",
    "version": "0.8.10+commit.fc410830.Emscripten.clang"
  },
  "schemaVersion": "3.4.16",
  "updatedAt": "2024-10-29T14:56:19.412Z",
  "devdoc": {
    "kind": "dev",
    "methods": {},
    "version": 1
  },
  "userdoc": {
    "kind": "user",
    "methods": {},
    "version": 1
  }
}